{
	"data": {
		"bytecode": {
			"linkReferences": {},
			"object": "60806040526103e85f806101000a81548161ffff021916908361ffff1602179055506101f45f60026101000a81548163ffffffff021916908363ffffffff160217905550604051806060016040528060c860ff168152602001607860ff168152602001603260ff1681525060019060036200007c92919062000131565b50604051806060016040528061012c61ffff1681526020016102bc61ffff16815260200161038461ffff168152506002906003620000bc929190620001e2565b5061012c60035f6101000a81548161ffff021916908361ffff1602179055506078600360026101000a81548163ffffffff021916908363ffffffff1602179055505f600360066101000a81548163ffffffff021916908363ffffffff1602179055503480156200012a575f80fd5b50620002b1565b828054828255905f5260205f2090600701600890048101928215620001cf579160200282015f5b838211156200019b57835183826101000a81548163ffffffff021916908360ff160217905550926020019260040160208160030104928301926001030262000158565b8015620001cd5782816101000a81549063ffffffff02191690556004016020816003010492830192600103026200019b565b505b509050620001de919062000294565b5090565b828054828255905f5260205f209060070160089004810192821562000281579160200282015f5b838211156200024d57835183826101000a81548163ffffffff021916908361ffff160217905550926020019260040160208160030104928301926001030262000209565b80156200027f5782816101000a81549063ffffffff02191690556004016020816003010492830192600103026200024d565b505b50905062000290919062000294565b5090565b5b80821115620002ad575f815f90555060010162000295565b5090565b610e2180620002bf5f395ff3fe608060405234801561000f575f80fd5b50600436106100fe575f3560e01c8063957fae9611610095578063d12f524711610064578063d12f52471461024c578063d562deef14610268578063e47d6fc014610286578063febf4b83146102a2576100fe565b8063957fae96146101d6578063a0bd5ab9146101f4578063b040514314610212578063cfba226514610230576100fe565b80635035b351116100d15780635035b351146101645780637a81e695146101825780638c0e59ac1461019e5780638df5a2e5146101ba576100fe565b806318252d52146101025780632ccb0d1e1461011e5780633074031c146101285780633e5c73fc14610146575b5f80fd5b61011c6004803603810190610117919061097c565b6102be565b005b610126610370565b005b61013061037c565b60405161013d91906109c9565b60405180910390f35b61014e610394565b60405161015b9190610a99565b60405180910390f35b61016c610415565b60405161017991906109c9565b60405180910390f35b61019c60048036038101906101979190610af0565b610484565b005b6101b860048036038101906101b39190610b1b565b6104a3565b005b6101d460048036038101906101cf9190610b1b565b6104c7565b005b6101de610508565b6040516101eb91906109c9565b60405180910390f35b6101fc610521565b6040516102099190610a99565b60405180910390f35b61021a6105a2565b60405161022791906109c9565b60405180910390f35b61024a60048036038101906102459190610b1b565b6105f5565b005b61026660048036038101906102619190610b1b565b610618565b005b610270610659565b60405161027d91906109c9565b60405180910390f35b6102a0600480360381019061029b9190610b1b565b610672565b005b6102bc60048036038101906102b79190610b1b565b6106b3565b005b5f8260ff161180156102d857506002805490508260ff1611155b610317576040517f08c379a000000000000000000000000000000000000000000000000000000000815260040161030e90610ba0565b60405180910390fd5b8060026001846103279190610beb565b60ff168154811061033b5761033a610c1f565b5b905f5260205f2090600891828204019190066004026101000a81548163ffffffff021916908363ffffffff1602179055505050565b61037a60036106f4565b565b5f8060029054906101000a900463ffffffff16905090565b6060600280548060200260200160405190810160405280929190818152602001828054801561040b57602002820191905f5260205f20905f905b82829054906101000a900463ffffffff1663ffffffff16815260200190600401906020826003010492830192600103820291508084116103ce5790505b5050505050905090565b5f805f9054906101000a900461ffff1661ffff16600360069054906101000a900463ffffffff16600360029054906101000a900463ffffffff165f8054906101000a900461ffff1661ffff1661046b9190610c4c565b6104759190610c83565b61047f9190610cec565b905090565b8060035f6101000a81548161ffff021916908361ffff16021790555050565b80600360026101000a81548163ffffffff021916908363ffffffff16021790555050565b805f60028282829054906101000a900463ffffffff166104e79190610cec565b92506101000a81548163ffffffff021916908363ffffffff16021790555050565b5f600360069054906101000a900463ffffffff16905090565b6060600180548060200260200160405190810160405280929190818152602001828054801561059857602002820191905f5260205f20905f905b82829054906101000a900463ffffffff1663ffffffff168152602001906004019060208260030104928301926001038202915080841161055b5790505b5050505050905090565b5f805f9054906101000a900461ffff1661ffff16600360069054906101000a900463ffffffff16600360029054906101000a900463ffffffff166105e69190610c83565b6105f09190610cec565b905090565b805f60026101000a81548163ffffffff021916908363ffffffff16021790555050565b805f60028282829054906101000a900463ffffffff166106389190610c83565b92506101000a81548163ffffffff021916908363ffffffff16021790555050565b5f600360029054906101000a900463ffffffff16905090565b805f60028282829054906101000a900463ffffffff166106929190610c4c565b92506101000a81548163ffffffff021916908363ffffffff16021790555050565b805f60028282829054906101000a900463ffffffff166106d39190610d1c565b92506101000a81548163ffffffff021916908363ffffffff16021790555050565b5f8160ff1611801561070e57506002805490508160ff1611155b61074d576040517f08c379a000000000000000000000000000000000000000000000000000000000815260040161074490610ba0565b60405180910390fd5b5f8060029054906101000a900463ffffffff1690505f5b6002805490508160ff16101561081d575f6001826107829190610d53565b90508360ff168260ff1610156107fb575f8054906101000a900461ffff1661ffff1660028360ff16815481106107bb576107ba610c1f565b5b905f5260205f2090600891828204019190066004029054906101000a900463ffffffff16846107ea9190610c83565b6107f49190610cec565b92506107ff565b5f92505b610809818461082a565b50808061081590610d87565b915050610764565b50610826610882565b5050565b80600180846108399190610beb565b60ff168154811061084d5761084c610c1f565b5b905f5260205f2090600891828204019190066004026101000a81548163ffffffff021916908363ffffffff1602179055505050565b60035f9054906101000a900461ffff1661ffff1660018080805490506108a89190610db8565b815481106108b9576108b8610c1f565b5b905f5260205f2090600891828204019190066004029054906101000a900463ffffffff166108e79190610c83565b600360066101000a81548163ffffffff021916908363ffffffff160217905550565b5f80fd5b5f60ff82169050919050565b6109228161090d565b811461092c575f80fd5b50565b5f8135905061093d81610919565b92915050565b5f63ffffffff82169050919050565b61095b81610943565b8114610965575f80fd5b50565b5f8135905061097681610952565b92915050565b5f806040838503121561099257610991610909565b5b5f61099f8582860161092f565b92505060206109b085828601610968565b9150509250929050565b6109c381610943565b82525050565b5f6020820190506109dc5f8301846109ba565b92915050565b5f81519050919050565b5f82825260208201905092915050565b5f819050602082019050919050565b610a1481610943565b82525050565b5f610a258383610a0b565b60208301905092915050565b5f602082019050919050565b5f610a47826109e2565b610a5181856109ec565b9350610a5c836109fc565b805f5b83811015610a8c578151610a738882610a1a565b9750610a7e83610a31565b925050600181019050610a5f565b5085935050505092915050565b5f6020820190508181035f830152610ab18184610a3d565b905092915050565b5f61ffff82169050919050565b610acf81610ab9565b8114610ad9575f80fd5b50565b5f81359050610aea81610ac6565b92915050565b5f60208284031215610b0557610b04610909565b5b5f610b1284828501610adc565b91505092915050565b5f60208284031215610b3057610b2f610909565b5b5f610b3d84828501610968565b91505092915050565b5f82825260208201905092915050565b7f496e76616c69642073746570206e756d626572000000000000000000000000005f82015250565b5f610b8a601383610b46565b9150610b9582610b56565b602082019050919050565b5f6020820190508181035f830152610bb781610b7e565b9050919050565b7f4e487b71000000000000000000000000000000000000000000000000000000005f52601160045260245ffd5b5f610bf58261090d565b9150610c008361090d565b9250828203905060ff811115610c1957610c18610bbe565b5b92915050565b7f4e487b71000000000000000000000000000000000000000000000000000000005f52603260045260245ffd5b5f610c5682610943565b9150610c6183610943565b9250828203905063ffffffff811115610c7d57610c7c610bbe565b5b92915050565b5f610c8d82610943565b9150610c9883610943565b9250828202610ca681610943565b9150808214610cb857610cb7610bbe565b5b5092915050565b7f4e487b71000000000000000000000000000000000000000000000000000000005f52601260045260245ffd5b5f610cf682610943565b9150610d0183610943565b925082610d1157610d10610cbf565b5b828204905092915050565b5f610d2682610943565b9150610d3183610943565b9250828201905063ffffffff811115610d4d57610d4c610bbe565b5b92915050565b5f610d5d8261090d565b9150610d688361090d565b9250828201905060ff811115610d8157610d80610bbe565b5b92915050565b5f610d918261090d565b915060ff8203610da457610da3610bbe565b5b600182019050919050565b5f819050919050565b5f610dc282610daf565b9150610dcd83610daf565b9250828203905081811115610de557610de4610bbe565b5b9291505056fea2646970667358221220866be461e6327f84fcdf9fb19f7a6f43f566915b568e76db64ab54fbac8cb4aa64736f6c63430008170033",
			"opcodes": "PUSH1 0x80 PUSH1 0x40 MSTORE PUSH2 0x3E8 PUSH0 DUP1 PUSH2 0x100 EXP DUP2 SLOAD DUP2 PUSH2 0xFFFF MUL NOT AND SWAP1 DUP4 PUSH2 0xFFFF AND MUL OR SWAP1 SSTORE POP PUSH2 0x1F4 PUSH0 PUSH1 0x2 PUSH2 0x100 EXP DUP2 SLOAD DUP2 PUSH4 0xFFFFFFFF MUL NOT AND SWAP1 DUP4 PUSH4 0xFFFFFFFF AND MUL OR SWAP1 SSTORE POP PUSH1 0x40 MLOAD DUP1 PUSH1 0x60 ADD PUSH1 0x40 MSTORE DUP1 PUSH1 0xC8 PUSH1 0xFF AND DUP2 MSTORE PUSH1 0x20 ADD PUSH1 0x78 PUSH1 0xFF AND DUP2 MSTORE PUSH1 0x20 ADD PUSH1 0x32 PUSH1 0xFF AND DUP2 MSTORE POP PUSH1 0x1 SWAP1 PUSH1 0x3 PUSH3 0x7C SWAP3 SWAP2 SWAP1 PUSH3 0x131 JUMP JUMPDEST POP PUSH1 0x40 MLOAD DUP1 PUSH1 0x60 ADD PUSH1 0x40 MSTORE DUP1 PUSH2 0x12C PUSH2 0xFFFF AND DUP2 MSTORE PUSH1 0x20 ADD PUSH2 0x2BC PUSH2 0xFFFF AND DUP2 MSTORE PUSH1 0x20 ADD PUSH2 0x384 PUSH2 0xFFFF AND DUP2 MSTORE POP PUSH1 0x2 SWAP1 PUSH1 0x3 PUSH3 0xBC SWAP3 SWAP2 SWAP1 PUSH3 0x1E2 JUMP JUMPDEST POP PUSH2 0x12C PUSH1 0x3 PUSH0 PUSH2 0x100 EXP DUP2 SLOAD DUP2 PUSH2 0xFFFF MUL NOT AND SWAP1 DUP4 PUSH2 0xFFFF AND MUL OR SWAP1 SSTORE POP PUSH1 0x78 PUSH1 0x3 PUSH1 0x2 PUSH2 0x100 EXP DUP2 SLOAD DUP2 PUSH4 0xFFFFFFFF MUL NOT AND SWAP1 DUP4 PUSH4 0xFFFFFFFF AND MUL OR SWAP1 SSTORE POP PUSH0 PUSH1 0x3 PUSH1 0x6 PUSH2 0x100 EXP DUP2 SLOAD DUP2 PUSH4 0xFFFFFFFF MUL NOT AND SWAP1 DUP4 PUSH4 0xFFFFFFFF AND MUL OR SWAP1 SSTORE POP CALLVALUE DUP1 ISZERO PUSH3 0x12A JUMPI PUSH0 DUP1 REVERT JUMPDEST POP PUSH3 0x2B1 JUMP JUMPDEST DUP3 DUP1 SLOAD DUP3 DUP3 SSTORE SWAP1 PUSH0 MSTORE PUSH1 0x20 PUSH0 KECCAK256 SWAP1 PUSH1 0x7 ADD PUSH1 0x8 SWAP1 DIV DUP2 ADD SWAP3 DUP3 ISZERO PUSH3 0x1CF JUMPI SWAP2 PUSH1 0x20 MUL DUP3 ADD PUSH0 JUMPDEST DUP4 DUP3 GT ISZERO PUSH3 0x19B JUMPI DUP4 MLOAD DUP4 DUP3 PUSH2 0x100 EXP DUP2 SLOAD DUP2 PUSH4 0xFFFFFFFF MUL NOT AND SWAP1 DUP4 PUSH1 0xFF AND MUL OR SWAP1 SSTORE POP SWAP3 PUSH1 0x20 ADD SWAP3 PUSH1 0x4 ADD PUSH1 0x20 DUP2 PUSH1 0x3 ADD DIV SWAP3 DUP4 ADD SWAP3 PUSH1 0x1 SUB MUL PUSH3 0x158 JUMP JUMPDEST DUP1 ISZERO PUSH3 0x1CD JUMPI DUP3 DUP2 PUSH2 0x100 EXP DUP2 SLOAD SWAP1 PUSH4 0xFFFFFFFF MUL NOT AND SWAP1 SSTORE PUSH1 0x4 ADD PUSH1 0x20 DUP2 PUSH1 0x3 ADD DIV SWAP3 DUP4 ADD SWAP3 PUSH1 0x1 SUB MUL PUSH3 0x19B JUMP JUMPDEST POP JUMPDEST POP SWAP1 POP PUSH3 0x1DE SWAP2 SWAP1 PUSH3 0x294 JUMP JUMPDEST POP SWAP1 JUMP JUMPDEST DUP3 DUP1 SLOAD DUP3 DUP3 SSTORE SWAP1 PUSH0 MSTORE PUSH1 0x20 PUSH0 KECCAK256 SWAP1 PUSH1 0x7 ADD PUSH1 0x8 SWAP1 DIV DUP2 ADD SWAP3 DUP3 ISZERO PUSH3 0x281 JUMPI SWAP2 PUSH1 0x20 MUL DUP3 ADD PUSH0 JUMPDEST DUP4 DUP3 GT ISZERO PUSH3 0x24D JUMPI DUP4 MLOAD DUP4 DUP3 PUSH2 0x100 EXP DUP2 SLOAD DUP2 PUSH4 0xFFFFFFFF MUL NOT AND SWAP1 DUP4 PUSH2 0xFFFF AND MUL OR SWAP1 SSTORE POP SWAP3 PUSH1 0x20 ADD SWAP3 PUSH1 0x4 ADD PUSH1 0x20 DUP2 PUSH1 0x3 ADD DIV SWAP3 DUP4 ADD SWAP3 PUSH1 0x1 SUB MUL PUSH3 0x209 JUMP JUMPDEST DUP1 ISZERO PUSH3 0x27F JUMPI DUP3 DUP2 PUSH2 0x100 EXP DUP2 SLOAD SWAP1 PUSH4 0xFFFFFFFF MUL NOT AND SWAP1 SSTORE PUSH1 0x4 ADD PUSH1 0x20 DUP2 PUSH1 0x3 ADD DIV SWAP3 DUP4 ADD SWAP3 PUSH1 0x1 SUB MUL PUSH3 0x24D JUMP JUMPDEST POP JUMPDEST POP SWAP1 POP PUSH3 0x290 SWAP2 SWAP1 PUSH3 0x294 JUMP JUMPDEST POP SWAP1 JUMP JUMPDEST JUMPDEST DUP1 DUP3 GT ISZERO PUSH3 0x2AD JUMPI PUSH0 DUP2 PUSH0 SWAP1 SSTORE POP PUSH1 0x1 ADD PUSH3 0x295 JUMP JUMPDEST POP SWAP1 JUMP JUMPDEST PUSH2 0xE21 DUP1 PUSH3 0x2BF PUSH0 CODECOPY PUSH0 RETURN INVALID PUSH1 0x80 PUSH1 0x40 MSTORE CALLVALUE DUP1 ISZERO PUSH2 0xF JUMPI PUSH0 DUP1 REVERT JUMPDEST POP PUSH1 0x4 CALLDATASIZE LT PUSH2 0xFE JUMPI PUSH0 CALLDATALOAD PUSH1 0xE0 SHR DUP1 PUSH4 0x957FAE96 GT PUSH2 0x95 JUMPI DUP1 PUSH4 0xD12F5247 GT PUSH2 0x64 JUMPI DUP1 PUSH4 0xD12F5247 EQ PUSH2 0x24C JUMPI DUP1 PUSH4 0xD562DEEF EQ PUSH2 0x268 JUMPI DUP1 PUSH4 0xE47D6FC0 EQ PUSH2 0x286 JUMPI DUP1 PUSH4 0xFEBF4B83 EQ PUSH2 0x2A2 JUMPI PUSH2 0xFE JUMP JUMPDEST DUP1 PUSH4 0x957FAE96 EQ PUSH2 0x1D6 JUMPI DUP1 PUSH4 0xA0BD5AB9 EQ PUSH2 0x1F4 JUMPI DUP1 PUSH4 0xB0405143 EQ PUSH2 0x212 JUMPI DUP1 PUSH4 0xCFBA2265 EQ PUSH2 0x230 JUMPI PUSH2 0xFE JUMP JUMPDEST DUP1 PUSH4 0x5035B351 GT PUSH2 0xD1 JUMPI DUP1 PUSH4 0x5035B351 EQ PUSH2 0x164 JUMPI DUP1 PUSH4 0x7A81E695 EQ PUSH2 0x182 JUMPI DUP1 PUSH4 0x8C0E59AC EQ PUSH2 0x19E JUMPI DUP1 PUSH4 0x8DF5A2E5 EQ PUSH2 0x1BA JUMPI PUSH2 0xFE JUMP JUMPDEST DUP1 PUSH4 0x18252D52 EQ PUSH2 0x102 JUMPI DUP1 PUSH4 0x2CCB0D1E EQ PUSH2 0x11E JUMPI DUP1 PUSH4 0x3074031C EQ PUSH2 0x128 JUMPI DUP1 PUSH4 0x3E5C73FC EQ PUSH2 0x146 JUMPI JUMPDEST PUSH0 DUP1 REVERT JUMPDEST PUSH2 0x11C PUSH1 0x4 DUP1 CALLDATASIZE SUB DUP2 ADD SWAP1 PUSH2 0x117 SWAP2 SWAP1 PUSH2 0x97C JUMP JUMPDEST PUSH2 0x2BE JUMP JUMPDEST STOP JUMPDEST PUSH2 0x126 PUSH2 0x370 JUMP JUMPDEST STOP JUMPDEST PUSH2 0x130 PUSH2 0x37C JUMP JUMPDEST PUSH1 0x40 MLOAD PUSH2 0x13D SWAP2 SWAP1 PUSH2 0x9C9 JUMP JUMPDEST PUSH1 0x40 MLOAD DUP1 SWAP2 SUB SWAP1 RETURN JUMPDEST PUSH2 0x14E PUSH2 0x394 JUMP JUMPDEST PUSH1 0x40 MLOAD PUSH2 0x15B SWAP2 SWAP1 PUSH2 0xA99 JUMP JUMPDEST PUSH1 0x40 MLOAD DUP1 SWAP2 SUB SWAP1 RETURN JUMPDEST PUSH2 0x16C PUSH2 0x415 JUMP JUMPDEST PUSH1 0x40 MLOAD PUSH2 0x179 SWAP2 SWAP1 PUSH2 0x9C9 JUMP JUMPDEST PUSH1 0x40 MLOAD DUP1 SWAP2 SUB SWAP1 RETURN JUMPDEST PUSH2 0x19C PUSH1 0x4 DUP1 CALLDATASIZE SUB DUP2 ADD SWAP1 PUSH2 0x197 SWAP2 SWAP1 PUSH2 0xAF0 JUMP JUMPDEST PUSH2 0x484 JUMP JUMPDEST STOP JUMPDEST PUSH2 0x1B8 PUSH1 0x4 DUP1 CALLDATASIZE SUB DUP2 ADD SWAP1 PUSH2 0x1B3 SWAP2 SWAP1 PUSH2 0xB1B JUMP JUMPDEST PUSH2 0x4A3 JUMP JUMPDEST STOP JUMPDEST PUSH2 0x1D4 PUSH1 0x4 DUP1 CALLDATASIZE SUB DUP2 ADD SWAP1 PUSH2 0x1CF SWAP2 SWAP1 PUSH2 0xB1B JUMP JUMPDEST PUSH2 0x4C7 JUMP JUMPDEST STOP JUMPDEST PUSH2 0x1DE PUSH2 0x508 JUMP JUMPDEST PUSH1 0x40 MLOAD PUSH2 0x1EB SWAP2 SWAP1 PUSH2 0x9C9 JUMP JUMPDEST PUSH1 0x40 MLOAD DUP1 SWAP2 SUB SWAP1 RETURN JUMPDEST PUSH2 0x1FC PUSH2 0x521 JUMP JUMPDEST PUSH1 0x40 MLOAD PUSH2 0x209 SWAP2 SWAP1 PUSH2 0xA99 JUMP JUMPDEST PUSH1 0x40 MLOAD DUP1 SWAP2 SUB SWAP1 RETURN JUMPDEST PUSH2 0x21A PUSH2 0x5A2 JUMP JUMPDEST PUSH1 0x40 MLOAD PUSH2 0x227 SWAP2 SWAP1 PUSH2 0x9C9 JUMP JUMPDEST PUSH1 0x40 MLOAD DUP1 SWAP2 SUB SWAP1 RETURN JUMPDEST PUSH2 0x24A PUSH1 0x4 DUP1 CALLDATASIZE SUB DUP2 ADD SWAP1 PUSH2 0x245 SWAP2 SWAP1 PUSH2 0xB1B JUMP JUMPDEST PUSH2 0x5F5 JUMP JUMPDEST STOP JUMPDEST PUSH2 0x266 PUSH1 0x4 DUP1 CALLDATASIZE SUB DUP2 ADD SWAP1 PUSH2 0x261 SWAP2 SWAP1 PUSH2 0xB1B JUMP JUMPDEST PUSH2 0x618 JUMP JUMPDEST STOP JUMPDEST PUSH2 0x270 PUSH2 0x659 JUMP JUMPDEST PUSH1 0x40 MLOAD PUSH2 0x27D SWAP2 SWAP1 PUSH2 0x9C9 JUMP JUMPDEST PUSH1 0x40 MLOAD DUP1 SWAP2 SUB SWAP1 RETURN JUMPDEST PUSH2 0x2A0 PUSH1 0x4 DUP1 CALLDATASIZE SUB DUP2 ADD SWAP1 PUSH2 0x29B SWAP2 SWAP1 PUSH2 0xB1B JUMP JUMPDEST PUSH2 0x672 JUMP JUMPDEST STOP JUMPDEST PUSH2 0x2BC PUSH1 0x4 DUP1 CALLDATASIZE SUB DUP2 ADD SWAP1 PUSH2 0x2B7 SWAP2 SWAP1 PUSH2 0xB1B JUMP JUMPDEST PUSH2 0x6B3 JUMP JUMPDEST STOP JUMPDEST PUSH0 DUP3 PUSH1 0xFF AND GT DUP1 ISZERO PUSH2 0x2D8 JUMPI POP PUSH1 0x2 DUP1 SLOAD SWAP1 POP DUP3 PUSH1 0xFF AND GT ISZERO JUMPDEST PUSH2 0x317 JUMPI PUSH1 0x40 MLOAD PUSH32 0x8C379A000000000000000000000000000000000000000000000000000000000 DUP2 MSTORE PUSH1 0x4 ADD PUSH2 0x30E SWAP1 PUSH2 0xBA0 JUMP JUMPDEST PUSH1 0x40 MLOAD DUP1 SWAP2 SUB SWAP1 REVERT JUMPDEST DUP1 PUSH1 0x2 PUSH1 0x1 DUP5 PUSH2 0x327 SWAP2 SWAP1 PUSH2 0xBEB JUMP JUMPDEST PUSH1 0xFF AND DUP2 SLOAD DUP2 LT PUSH2 0x33B JUMPI PUSH2 0x33A PUSH2 0xC1F JUMP JUMPDEST JUMPDEST SWAP1 PUSH0 MSTORE PUSH1 0x20 PUSH0 KECCAK256 SWAP1 PUSH1 0x8 SWAP2 DUP3 DUP3 DIV ADD SWAP2 SWAP1 MOD PUSH1 0x4 MUL PUSH2 0x100 EXP DUP2 SLOAD DUP2 PUSH4 0xFFFFFFFF MUL NOT AND SWAP1 DUP4 PUSH4 0xFFFFFFFF AND MUL OR SWAP1 SSTORE POP POP POP JUMP JUMPDEST PUSH2 0x37A PUSH1 0x3 PUSH2 0x6F4 JUMP JUMPDEST JUMP JUMPDEST PUSH0 DUP1 PUSH1 0x2 SWAP1 SLOAD SWAP1 PUSH2 0x100 EXP SWAP1 DIV PUSH4 0xFFFFFFFF AND SWAP1 POP SWAP1 JUMP JUMPDEST PUSH1 0x60 PUSH1 0x2 DUP1 SLOAD DUP1 PUSH1 0x20 MUL PUSH1 0x20 ADD PUSH1 0x40 MLOAD SWAP1 DUP2 ADD PUSH1 0x40 MSTORE DUP1 SWAP3 SWAP2 SWAP1 DUP2 DUP2 MSTORE PUSH1 0x20 ADD DUP3 DUP1 SLOAD DUP1 ISZERO PUSH2 0x40B JUMPI PUSH1 0x20 MUL DUP3 ADD SWAP2 SWAP1 PUSH0 MSTORE PUSH1 0x20 PUSH0 KECCAK256 SWAP1 PUSH0 SWAP1 JUMPDEST DUP3 DUP3 SWAP1 SLOAD SWAP1 PUSH2 0x100 EXP SWAP1 DIV PUSH4 0xFFFFFFFF AND PUSH4 0xFFFFFFFF AND DUP2 MSTORE PUSH1 0x20 ADD SWAP1 PUSH1 0x4 ADD SWAP1 PUSH1 0x20 DUP3 PUSH1 0x3 ADD DIV SWAP3 DUP4 ADD SWAP3 PUSH1 0x1 SUB DUP3 MUL SWAP2 POP DUP1 DUP5 GT PUSH2 0x3CE JUMPI SWAP1 POP JUMPDEST POP POP POP POP POP SWAP1 POP SWAP1 JUMP JUMPDEST PUSH0 DUP1 PUSH0 SWAP1 SLOAD SWAP1 PUSH2 0x100 EXP SWAP1 DIV PUSH2 0xFFFF AND PUSH2 0xFFFF AND PUSH1 0x3 PUSH1 0x6 SWAP1 SLOAD SWAP1 PUSH2 0x100 EXP SWAP1 DIV PUSH4 0xFFFFFFFF AND PUSH1 0x3 PUSH1 0x2 SWAP1 SLOAD SWAP1 PUSH2 0x100 EXP SWAP1 DIV PUSH4 0xFFFFFFFF AND PUSH0 DUP1 SLOAD SWAP1 PUSH2 0x100 EXP SWAP1 DIV PUSH2 0xFFFF AND PUSH2 0xFFFF AND PUSH2 0x46B SWAP2 SWAP1 PUSH2 0xC4C JUMP JUMPDEST PUSH2 0x475 SWAP2 SWAP1 PUSH2 0xC83 JUMP JUMPDEST PUSH2 0x47F SWAP2 SWAP1 PUSH2 0xCEC JUMP JUMPDEST SWAP1 POP SWAP1 JUMP JUMPDEST DUP1 PUSH1 0x3 PUSH0 PUSH2 0x100 EXP DUP2 SLOAD DUP2 PUSH2 0xFFFF MUL NOT AND SWAP1 DUP4 PUSH2 0xFFFF AND MUL OR SWAP1 SSTORE POP POP JUMP JUMPDEST DUP1 PUSH1 0x3 PUSH1 0x2 PUSH2 0x100 EXP DUP2 SLOAD DUP2 PUSH4 0xFFFFFFFF MUL NOT AND SWAP1 DUP4 PUSH4 0xFFFFFFFF AND MUL OR SWAP1 SSTORE POP POP JUMP JUMPDEST DUP1 PUSH0 PUSH1 0x2 DUP3 DUP3 DUP3 SWAP1 SLOAD SWAP1 PUSH2 0x100 EXP SWAP1 DIV PUSH4 0xFFFFFFFF AND PUSH2 0x4E7 SWAP2 SWAP1 PUSH2 0xCEC JUMP JUMPDEST SWAP3 POP PUSH2 0x100 EXP DUP2 SLOAD DUP2 PUSH4 0xFFFFFFFF MUL NOT AND SWAP1 DUP4 PUSH4 0xFFFFFFFF AND MUL OR SWAP1 SSTORE POP POP JUMP JUMPDEST PUSH0 PUSH1 0x3 PUSH1 0x6 SWAP1 SLOAD SWAP1 PUSH2 0x100 EXP SWAP1 DIV PUSH4 0xFFFFFFFF AND SWAP1 POP SWAP1 JUMP JUMPDEST PUSH1 0x60 PUSH1 0x1 DUP1 SLOAD DUP1 PUSH1 0x20 MUL PUSH1 0x20 ADD PUSH1 0x40 MLOAD SWAP1 DUP2 ADD PUSH1 0x40 MSTORE DUP1 SWAP3 SWAP2 SWAP1 DUP2 DUP2 MSTORE PUSH1 0x20 ADD DUP3 DUP1 SLOAD DUP1 ISZERO PUSH2 0x598 JUMPI PUSH1 0x20 MUL DUP3 ADD SWAP2 SWAP1 PUSH0 MSTORE PUSH1 0x20 PUSH0 KECCAK256 SWAP1 PUSH0 SWAP1 JUMPDEST DUP3 DUP3 SWAP1 SLOAD SWAP1 PUSH2 0x100 EXP SWAP1 DIV PUSH4 0xFFFFFFFF AND PUSH4 0xFFFFFFFF AND DUP2 MSTORE PUSH1 0x20 ADD SWAP1 PUSH1 0x4 ADD SWAP1 PUSH1 0x20 DUP3 PUSH1 0x3 ADD DIV SWAP3 DUP4 ADD SWAP3 PUSH1 0x1 SUB DUP3 MUL SWAP2 POP DUP1 DUP5 GT PUSH2 0x55B JUMPI SWAP1 POP JUMPDEST POP POP POP POP POP SWAP1 POP SWAP1 JUMP JUMPDEST PUSH0 DUP1 PUSH0 SWAP1 SLOAD SWAP1 PUSH2 0x100 EXP SWAP1 DIV PUSH2 0xFFFF AND PUSH2 0xFFFF AND PUSH1 0x3 PUSH1 0x6 SWAP1 SLOAD SWAP1 PUSH2 0x100 EXP SWAP1 DIV PUSH4 0xFFFFFFFF AND PUSH1 0x3 PUSH1 0x2 SWAP1 SLOAD SWAP1 PUSH2 0x100 EXP SWAP1 DIV PUSH4 0xFFFFFFFF AND PUSH2 0x5E6 SWAP2 SWAP1 PUSH2 0xC83 JUMP JUMPDEST PUSH2 0x5F0 SWAP2 SWAP1 PUSH2 0xCEC JUMP JUMPDEST SWAP1 POP SWAP1 JUMP JUMPDEST DUP1 PUSH0 PUSH1 0x2 PUSH2 0x100 EXP DUP2 SLOAD DUP2 PUSH4 0xFFFFFFFF MUL NOT AND SWAP1 DUP4 PUSH4 0xFFFFFFFF AND MUL OR SWAP1 SSTORE POP POP JUMP JUMPDEST DUP1 PUSH0 PUSH1 0x2 DUP3 DUP3 DUP3 SWAP1 SLOAD SWAP1 PUSH2 0x100 EXP SWAP1 DIV PUSH4 0xFFFFFFFF AND PUSH2 0x638 SWAP2 SWAP1 PUSH2 0xC83 JUMP JUMPDEST SWAP3 POP PUSH2 0x100 EXP DUP2 SLOAD DUP2 PUSH4 0xFFFFFFFF MUL NOT AND SWAP1 DUP4 PUSH4 0xFFFFFFFF AND MUL OR SWAP1 SSTORE POP POP JUMP JUMPDEST PUSH0 PUSH1 0x3 PUSH1 0x2 SWAP1 SLOAD SWAP1 PUSH2 0x100 EXP SWAP1 DIV PUSH4 0xFFFFFFFF AND SWAP1 POP SWAP1 JUMP JUMPDEST DUP1 PUSH0 PUSH1 0x2 DUP3 DUP3 DUP3 SWAP1 SLOAD SWAP1 PUSH2 0x100 EXP SWAP1 DIV PUSH4 0xFFFFFFFF AND PUSH2 0x692 SWAP2 SWAP1 PUSH2 0xC4C JUMP JUMPDEST SWAP3 POP PUSH2 0x100 EXP DUP2 SLOAD DUP2 PUSH4 0xFFFFFFFF MUL NOT AND SWAP1 DUP4 PUSH4 0xFFFFFFFF AND MUL OR SWAP1 SSTORE POP POP JUMP JUMPDEST DUP1 PUSH0 PUSH1 0x2 DUP3 DUP3 DUP3 SWAP1 SLOAD SWAP1 PUSH2 0x100 EXP SWAP1 DIV PUSH4 0xFFFFFFFF AND PUSH2 0x6D3 SWAP2 SWAP1 PUSH2 0xD1C JUMP JUMPDEST SWAP3 POP PUSH2 0x100 EXP DUP2 SLOAD DUP2 PUSH4 0xFFFFFFFF MUL NOT AND SWAP1 DUP4 PUSH4 0xFFFFFFFF AND MUL OR SWAP1 SSTORE POP POP JUMP JUMPDEST PUSH0 DUP2 PUSH1 0xFF AND GT DUP1 ISZERO PUSH2 0x70E JUMPI POP PUSH1 0x2 DUP1 SLOAD SWAP1 POP DUP2 PUSH1 0xFF AND GT ISZERO JUMPDEST PUSH2 0x74D JUMPI PUSH1 0x40 MLOAD PUSH32 0x8C379A000000000000000000000000000000000000000000000000000000000 DUP2 MSTORE PUSH1 0x4 ADD PUSH2 0x744 SWAP1 PUSH2 0xBA0 JUMP JUMPDEST PUSH1 0x40 MLOAD DUP1 SWAP2 SUB SWAP1 REVERT JUMPDEST PUSH0 DUP1 PUSH1 0x2 SWAP1 SLOAD SWAP1 PUSH2 0x100 EXP SWAP1 DIV PUSH4 0xFFFFFFFF AND SWAP1 POP PUSH0 JUMPDEST PUSH1 0x2 DUP1 SLOAD SWAP1 POP DUP2 PUSH1 0xFF AND LT ISZERO PUSH2 0x81D JUMPI PUSH0 PUSH1 0x1 DUP3 PUSH2 0x782 SWAP2 SWAP1 PUSH2 0xD53 JUMP JUMPDEST SWAP1 POP DUP4 PUSH1 0xFF AND DUP3 PUSH1 0xFF AND LT ISZERO PUSH2 0x7FB JUMPI PUSH0 DUP1 SLOAD SWAP1 PUSH2 0x100 EXP SWAP1 DIV PUSH2 0xFFFF AND PUSH2 0xFFFF AND PUSH1 0x2 DUP4 PUSH1 0xFF AND DUP2 SLOAD DUP2 LT PUSH2 0x7BB JUMPI PUSH2 0x7BA PUSH2 0xC1F JUMP JUMPDEST JUMPDEST SWAP1 PUSH0 MSTORE PUSH1 0x20 PUSH0 KECCAK256 SWAP1 PUSH1 0x8 SWAP2 DUP3 DUP3 DIV ADD SWAP2 SWAP1 MOD PUSH1 0x4 MUL SWAP1 SLOAD SWAP1 PUSH2 0x100 EXP SWAP1 DIV PUSH4 0xFFFFFFFF AND DUP5 PUSH2 0x7EA SWAP2 SWAP1 PUSH2 0xC83 JUMP JUMPDEST PUSH2 0x7F4 SWAP2 SWAP1 PUSH2 0xCEC JUMP JUMPDEST SWAP3 POP PUSH2 0x7FF JUMP JUMPDEST PUSH0 SWAP3 POP JUMPDEST PUSH2 0x809 DUP2 DUP5 PUSH2 0x82A JUMP JUMPDEST POP DUP1 DUP1 PUSH2 0x815 SWAP1 PUSH2 0xD87 JUMP JUMPDEST SWAP2 POP POP PUSH2 0x764 JUMP JUMPDEST POP PUSH2 0x826 PUSH2 0x882 JUMP JUMPDEST POP POP JUMP JUMPDEST DUP1 PUSH1 0x1 DUP1 DUP5 PUSH2 0x839 SWAP2 SWAP1 PUSH2 0xBEB JUMP JUMPDEST PUSH1 0xFF AND DUP2 SLOAD DUP2 LT PUSH2 0x84D JUMPI PUSH2 0x84C PUSH2 0xC1F JUMP JUMPDEST JUMPDEST SWAP1 PUSH0 MSTORE PUSH1 0x20 PUSH0 KECCAK256 SWAP1 PUSH1 0x8 SWAP2 DUP3 DUP3 DIV ADD SWAP2 SWAP1 MOD PUSH1 0x4 MUL PUSH2 0x100 EXP DUP2 SLOAD DUP2 PUSH4 0xFFFFFFFF MUL NOT AND SWAP1 DUP4 PUSH4 0xFFFFFFFF AND MUL OR SWAP1 SSTORE POP POP POP JUMP JUMPDEST PUSH1 0x3 PUSH0 SWAP1 SLOAD SWAP1 PUSH2 0x100 EXP SWAP1 DIV PUSH2 0xFFFF AND PUSH2 0xFFFF AND PUSH1 0x1 DUP1 DUP1 DUP1 SLOAD SWAP1 POP PUSH2 0x8A8 SWAP2 SWAP1 PUSH2 0xDB8 JUMP JUMPDEST DUP2 SLOAD DUP2 LT PUSH2 0x8B9 JUMPI PUSH2 0x8B8 PUSH2 0xC1F JUMP JUMPDEST JUMPDEST SWAP1 PUSH0 MSTORE PUSH1 0x20 PUSH0 KECCAK256 SWAP1 PUSH1 0x8 SWAP2 DUP3 DUP3 DIV ADD SWAP2 SWAP1 MOD PUSH1 0x4 MUL SWAP1 SLOAD SWAP1 PUSH2 0x100 EXP SWAP1 DIV PUSH4 0xFFFFFFFF AND PUSH2 0x8E7 SWAP2 SWAP1 PUSH2 0xC83 JUMP JUMPDEST PUSH1 0x3 PUSH1 0x6 PUSH2 0x100 EXP DUP2 SLOAD DUP2 PUSH4 0xFFFFFFFF MUL NOT AND SWAP1 DUP4 PUSH4 0xFFFFFFFF AND MUL OR SWAP1 SSTORE POP JUMP JUMPDEST PUSH0 DUP1 REVERT JUMPDEST PUSH0 PUSH1 0xFF DUP3 AND SWAP1 POP SWAP2 SWAP1 POP JUMP JUMPDEST PUSH2 0x922 DUP2 PUSH2 0x90D JUMP JUMPDEST DUP2 EQ PUSH2 0x92C JUMPI PUSH0 DUP1 REVERT JUMPDEST POP JUMP JUMPDEST PUSH0 DUP2 CALLDATALOAD SWAP1 POP PUSH2 0x93D DUP2 PUSH2 0x919 JUMP JUMPDEST SWAP3 SWAP2 POP POP JUMP JUMPDEST PUSH0 PUSH4 0xFFFFFFFF DUP3 AND SWAP1 POP SWAP2 SWAP1 POP JUMP JUMPDEST PUSH2 0x95B DUP2 PUSH2 0x943 JUMP JUMPDEST DUP2 EQ PUSH2 0x965 JUMPI PUSH0 DUP1 REVERT JUMPDEST POP JUMP JUMPDEST PUSH0 DUP2 CALLDATALOAD SWAP1 POP PUSH2 0x976 DUP2 PUSH2 0x952 JUMP JUMPDEST SWAP3 SWAP2 POP POP JUMP JUMPDEST PUSH0 DUP1 PUSH1 0x40 DUP4 DUP6 SUB SLT ISZERO PUSH2 0x992 JUMPI PUSH2 0x991 PUSH2 0x909 JUMP JUMPDEST JUMPDEST PUSH0 PUSH2 0x99F DUP6 DUP3 DUP7 ADD PUSH2 0x92F JUMP JUMPDEST SWAP3 POP POP PUSH1 0x20 PUSH2 0x9B0 DUP6 DUP3 DUP7 ADD PUSH2 0x968 JUMP JUMPDEST SWAP2 POP POP SWAP3 POP SWAP3 SWAP1 POP JUMP JUMPDEST PUSH2 0x9C3 DUP2 PUSH2 0x943 JUMP JUMPDEST DUP3 MSTORE POP POP JUMP JUMPDEST PUSH0 PUSH1 0x20 DUP3 ADD SWAP1 POP PUSH2 0x9DC PUSH0 DUP4 ADD DUP5 PUSH2 0x9BA JUMP JUMPDEST SWAP3 SWAP2 POP POP JUMP JUMPDEST PUSH0 DUP2 MLOAD SWAP1 POP SWAP2 SWAP1 POP JUMP JUMPDEST PUSH0 DUP3 DUP3 MSTORE PUSH1 0x20 DUP3 ADD SWAP1 POP SWAP3 SWAP2 POP POP JUMP JUMPDEST PUSH0 DUP2 SWAP1 POP PUSH1 0x20 DUP3 ADD SWAP1 POP SWAP2 SWAP1 POP JUMP JUMPDEST PUSH2 0xA14 DUP2 PUSH2 0x943 JUMP JUMPDEST DUP3 MSTORE POP POP JUMP JUMPDEST PUSH0 PUSH2 0xA25 DUP4 DUP4 PUSH2 0xA0B JUMP JUMPDEST PUSH1 0x20 DUP4 ADD SWAP1 POP SWAP3 SWAP2 POP POP JUMP JUMPDEST PUSH0 PUSH1 0x20 DUP3 ADD SWAP1 POP SWAP2 SWAP1 POP JUMP JUMPDEST PUSH0 PUSH2 0xA47 DUP3 PUSH2 0x9E2 JUMP JUMPDEST PUSH2 0xA51 DUP2 DUP6 PUSH2 0x9EC JUMP JUMPDEST SWAP4 POP PUSH2 0xA5C DUP4 PUSH2 0x9FC JUMP JUMPDEST DUP1 PUSH0 JUMPDEST DUP4 DUP2 LT ISZERO PUSH2 0xA8C JUMPI DUP2 MLOAD PUSH2 0xA73 DUP9 DUP3 PUSH2 0xA1A JUMP JUMPDEST SWAP8 POP PUSH2 0xA7E DUP4 PUSH2 0xA31 JUMP JUMPDEST SWAP3 POP POP PUSH1 0x1 DUP2 ADD SWAP1 POP PUSH2 0xA5F JUMP JUMPDEST POP DUP6 SWAP4 POP POP POP POP SWAP3 SWAP2 POP POP JUMP JUMPDEST PUSH0 PUSH1 0x20 DUP3 ADD SWAP1 POP DUP2 DUP2 SUB PUSH0 DUP4 ADD MSTORE PUSH2 0xAB1 DUP2 DUP5 PUSH2 0xA3D JUMP JUMPDEST SWAP1 POP SWAP3 SWAP2 POP POP JUMP JUMPDEST PUSH0 PUSH2 0xFFFF DUP3 AND SWAP1 POP SWAP2 SWAP1 POP JUMP JUMPDEST PUSH2 0xACF DUP2 PUSH2 0xAB9 JUMP JUMPDEST DUP2 EQ PUSH2 0xAD9 JUMPI PUSH0 DUP1 REVERT JUMPDEST POP JUMP JUMPDEST PUSH0 DUP2 CALLDATALOAD SWAP1 POP PUSH2 0xAEA DUP2 PUSH2 0xAC6 JUMP JUMPDEST SWAP3 SWAP2 POP POP JUMP JUMPDEST PUSH0 PUSH1 0x20 DUP3 DUP5 SUB SLT ISZERO PUSH2 0xB05 JUMPI PUSH2 0xB04 PUSH2 0x909 JUMP JUMPDEST JUMPDEST PUSH0 PUSH2 0xB12 DUP5 DUP3 DUP6 ADD PUSH2 0xADC JUMP JUMPDEST SWAP2 POP POP SWAP3 SWAP2 POP POP JUMP JUMPDEST PUSH0 PUSH1 0x20 DUP3 DUP5 SUB SLT ISZERO PUSH2 0xB30 JUMPI PUSH2 0xB2F PUSH2 0x909 JUMP JUMPDEST JUMPDEST PUSH0 PUSH2 0xB3D DUP5 DUP3 DUP6 ADD PUSH2 0x968 JUMP JUMPDEST SWAP2 POP POP SWAP3 SWAP2 POP POP JUMP JUMPDEST PUSH0 DUP3 DUP3 MSTORE PUSH1 0x20 DUP3 ADD SWAP1 POP SWAP3 SWAP2 POP POP JUMP JUMPDEST PUSH32 0x496E76616C69642073746570206E756D62657200000000000000000000000000 PUSH0 DUP3 ADD MSTORE POP JUMP JUMPDEST PUSH0 PUSH2 0xB8A PUSH1 0x13 DUP4 PUSH2 0xB46 JUMP JUMPDEST SWAP2 POP PUSH2 0xB95 DUP3 PUSH2 0xB56 JUMP JUMPDEST PUSH1 0x20 DUP3 ADD SWAP1 POP SWAP2 SWAP1 POP JUMP JUMPDEST PUSH0 PUSH1 0x20 DUP3 ADD SWAP1 POP DUP2 DUP2 SUB PUSH0 DUP4 ADD MSTORE PUSH2 0xBB7 DUP2 PUSH2 0xB7E JUMP JUMPDEST SWAP1 POP SWAP2 SWAP1 POP JUMP JUMPDEST PUSH32 0x4E487B7100000000000000000000000000000000000000000000000000000000 PUSH0 MSTORE PUSH1 0x11 PUSH1 0x4 MSTORE PUSH1 0x24 PUSH0 REVERT JUMPDEST PUSH0 PUSH2 0xBF5 DUP3 PUSH2 0x90D JUMP JUMPDEST SWAP2 POP PUSH2 0xC00 DUP4 PUSH2 0x90D JUMP JUMPDEST SWAP3 POP DUP3 DUP3 SUB SWAP1 POP PUSH1 0xFF DUP2 GT ISZERO PUSH2 0xC19 JUMPI PUSH2 0xC18 PUSH2 0xBBE JUMP JUMPDEST JUMPDEST SWAP3 SWAP2 POP POP JUMP JUMPDEST PUSH32 0x4E487B7100000000000000000000000000000000000000000000000000000000 PUSH0 MSTORE PUSH1 0x32 PUSH1 0x4 MSTORE PUSH1 0x24 PUSH0 REVERT JUMPDEST PUSH0 PUSH2 0xC56 DUP3 PUSH2 0x943 JUMP JUMPDEST SWAP2 POP PUSH2 0xC61 DUP4 PUSH2 0x943 JUMP JUMPDEST SWAP3 POP DUP3 DUP3 SUB SWAP1 POP PUSH4 0xFFFFFFFF DUP2 GT ISZERO PUSH2 0xC7D JUMPI PUSH2 0xC7C PUSH2 0xBBE JUMP JUMPDEST JUMPDEST SWAP3 SWAP2 POP POP JUMP JUMPDEST PUSH0 PUSH2 0xC8D DUP3 PUSH2 0x943 JUMP JUMPDEST SWAP2 POP PUSH2 0xC98 DUP4 PUSH2 0x943 JUMP JUMPDEST SWAP3 POP DUP3 DUP3 MUL PUSH2 0xCA6 DUP2 PUSH2 0x943 JUMP JUMPDEST SWAP2 POP DUP1 DUP3 EQ PUSH2 0xCB8 JUMPI PUSH2 0xCB7 PUSH2 0xBBE JUMP JUMPDEST JUMPDEST POP SWAP3 SWAP2 POP POP JUMP JUMPDEST PUSH32 0x4E487B7100000000000000000000000000000000000000000000000000000000 PUSH0 MSTORE PUSH1 0x12 PUSH1 0x4 MSTORE PUSH1 0x24 PUSH0 REVERT JUMPDEST PUSH0 PUSH2 0xCF6 DUP3 PUSH2 0x943 JUMP JUMPDEST SWAP2 POP PUSH2 0xD01 DUP4 PUSH2 0x943 JUMP JUMPDEST SWAP3 POP DUP3 PUSH2 0xD11 JUMPI PUSH2 0xD10 PUSH2 0xCBF JUMP JUMPDEST JUMPDEST DUP3 DUP3 DIV SWAP1 POP SWAP3 SWAP2 POP POP JUMP JUMPDEST PUSH0 PUSH2 0xD26 DUP3 PUSH2 0x943 JUMP JUMPDEST SWAP2 POP PUSH2 0xD31 DUP4 PUSH2 0x943 JUMP JUMPDEST SWAP3 POP DUP3 DUP3 ADD SWAP1 POP PUSH4 0xFFFFFFFF DUP2 GT ISZERO PUSH2 0xD4D JUMPI PUSH2 0xD4C PUSH2 0xBBE JUMP JUMPDEST JUMPDEST SWAP3 SWAP2 POP POP JUMP JUMPDEST PUSH0 PUSH2 0xD5D DUP3 PUSH2 0x90D JUMP JUMPDEST SWAP2 POP PUSH2 0xD68 DUP4 PUSH2 0x90D JUMP JUMPDEST SWAP3 POP DUP3 DUP3 ADD SWAP1 POP PUSH1 0xFF DUP2 GT ISZERO PUSH2 0xD81 JUMPI PUSH2 0xD80 PUSH2 0xBBE JUMP JUMPDEST JUMPDEST SWAP3 SWAP2 POP POP JUMP JUMPDEST PUSH0 PUSH2 0xD91 DUP3 PUSH2 0x90D JUMP JUMPDEST SWAP2 POP PUSH1 0xFF DUP3 SUB PUSH2 0xDA4 JUMPI PUSH2 0xDA3 PUSH2 0xBBE JUMP JUMPDEST JUMPDEST PUSH1 0x1 DUP3 ADD SWAP1 POP SWAP2 SWAP1 POP JUMP JUMPDEST PUSH0 DUP2 SWAP1 POP SWAP2 SWAP1 POP JUMP JUMPDEST PUSH0 PUSH2 0xDC2 DUP3 PUSH2 0xDAF JUMP JUMPDEST SWAP2 POP PUSH2 0xDCD DUP4 PUSH2 0xDAF JUMP JUMPDEST SWAP3 POP DUP3 DUP3 SUB SWAP1 POP DUP2 DUP2 GT ISZERO PUSH2 0xDE5 JUMPI PUSH2 0xDE4 PUSH2 0xBBE JUMP JUMPDEST JUMPDEST SWAP3 SWAP2 POP POP JUMP INVALID LOG2 PUSH5 0x6970667358 0x22 SLT KECCAK256 DUP7 PUSH12 0xE461E6327F84FCDF9FB19F7A PUSH16 0x43F566915B568E76DB64AB54FBAC8CB4 0xAA PUSH5 0x736F6C6343 STOP ADDMOD OR STOP CALLER "
		},
		"gasEstimates": {
			"creation": {
				"codeDepositCost": "723400",
				"executionCost": "infinite",
				"totalCost": "infinite"
			},
			"external": {
				"addBaseAudience(uint32)": "infinite",
				"calculateResults()": "infinite",
				"divideBaseAudienceBy(uint32)": "infinite",
				"getAffiliateFee()": "2568",
				"getAffiliateProfits()": "infinite",
				"getAudience()": "2592",
				"getConversionRates()": "infinite",
				"getConversionTotals()": "infinite",
				"getMyProfits()": "infinite",
				"getTotalRevenue()": "2547",
				"multiplyBaseAudienceBy(uint32)": "infinite",
				"setAffiliateFee(uint32)": "24791",
				"setBaseAudience(uint32)": "24812",
				"setConversionRates(uint8,uint32)": "infinite",
				"setSaleValue(uint16)": "24718",
				"subtractBaseAudience(uint32)": "infinite"
			},
			"internal": {
				"calculateProfits()": "infinite",
				"calculateResultsUpToStep(uint8)": "infinite",
				"setStepResult(uint8,uint32)": "infinite"
			}
		},
		"methodIdentifiers": {
			"addBaseAudience(uint32)": "febf4b83",
			"calculateResults()": "2ccb0d1e",
			"divideBaseAudienceBy(uint32)": "8df5a2e5",
			"getAffiliateFee()": "d562deef",
			"getAffiliateProfits()": "b0405143",
			"getAudience()": "3074031c",
			"getConversionRates()": "3e5c73fc",
			"getConversionTotals()": "a0bd5ab9",
			"getMyProfits()": "5035b351",
			"getTotalRevenue()": "957fae96",
			"multiplyBaseAudienceBy(uint32)": "d12f5247",
			"setAffiliateFee(uint32)": "8c0e59ac",
			"setBaseAudience(uint32)": "cfba2265",
			"setConversionRates(uint8,uint32)": "18252d52",
			"setSaleValue(uint16)": "7a81e695",
			"subtractBaseAudience(uint32)": "e47d6fc0"
		}
	},
	"abi": [
		{
			"inputs": [
				{
					"internalType": "uint32",
					"name": "num",
					"type": "uint32"
				}
			],
			"name": "addBaseAudience",
			"outputs": [],
			"stateMutability": "nonpayable",
			"type": "function"
		},
		{
			"inputs": [],
			"name": "calculateResults",
			"outputs": [],
			"stateMutability": "nonpayable",
			"type": "function"
		},
		{
			"inputs": [
				{
					"internalType": "uint32",
					"name": "num",
					"type": "uint32"
				}
			],
			"name": "divideBaseAudienceBy",
			"outputs": [],
			"stateMutability": "nonpayable",
			"type": "function"
		},
		{
			"inputs": [],
			"name": "getAffiliateFee",
			"outputs": [
				{
					"internalType": "uint32",
					"name": "",
					"type": "uint32"
				}
			],
			"stateMutability": "view",
			"type": "function"
		},
		{
			"inputs": [],
			"name": "getAffiliateProfits",
			"outputs": [
				{
					"internalType": "uint32",
					"name": "",
					"type": "uint32"
				}
			],
			"stateMutability": "view",
			"type": "function"
		},
		{
			"inputs": [],
			"name": "getAudience",
			"outputs": [
				{
					"internalType": "uint32",
					"name": "",
					"type": "uint32"
				}
			],
			"stateMutability": "view",
			"type": "function"
		},
		{
			"inputs": [],
			"name": "getConversionRates",
			"outputs": [
				{
					"internalType": "uint32[]",
					"name": "",
					"type": "uint32[]"
				}
			],
			"stateMutability": "view",
			"type": "function"
		},
		{
			"inputs": [],
			"name": "getConversionTotals",
			"outputs": [
				{
					"internalType": "uint32[]",
					"name": "",
					"type": "uint32[]"
				}
			],
			"stateMutability": "view",
			"type": "function"
		},
		{
			"inputs": [],
			"name": "getMyProfits",
			"outputs": [
				{
					"internalType": "uint32",
					"name": "",
					"type": "uint32"
				}
			],
			"stateMutability": "view",
			"type": "function"
		},
		{
			"inputs": [],
			"name": "getTotalRevenue",
			"outputs": [
				{
					"internalType": "uint32",
					"name": "",
					"type": "uint32"
				}
			],
			"stateMutability": "view",
			"type": "function"
		},
		{
			"inputs": [
				{
					"internalType": "uint32",
					"name": "num",
					"type": "uint32"
				}
			],
			"name": "multiplyBaseAudienceBy",
			"outputs": [],
			"stateMutability": "nonpayable",
			"type": "function"
		},
		{
			"inputs": [
				{
					"internalType": "uint32",
					"name": "newFee",
					"type": "uint32"
				}
			],
			"name": "setAffiliateFee",
			"outputs": [],
			"stateMutability": "nonpayable",
			"type": "function"
		},
		{
			"inputs": [
				{
					"internalType": "uint32",
					"name": "num",
					"type": "uint32"
				}
			],
			"name": "setBaseAudience",
			"outputs": [],
			"stateMutability": "nonpayable",
			"type": "function"
		},
		{
			"inputs": [
				{
					"internalType": "uint8",
					"name": "stepNum",
					"type": "uint8"
				},
				{
					"internalType": "uint32",
					"name": "rate",
					"type": "uint32"
				}
			],
			"name": "setConversionRates",
			"outputs": [],
			"stateMutability": "nonpayable",
			"type": "function"
		},
		{
			"inputs": [
				{
					"internalType": "uint16",
					"name": "num",
					"type": "uint16"
				}
			],
			"name": "setSaleValue",
			"outputs": [],
			"stateMutability": "nonpayable",
			"type": "function"
		},
		{
			"inputs": [
				{
					"internalType": "uint32",
					"name": "num",
					"type": "uint32"
				}
			],
			"name": "subtractBaseAudience",
			"outputs": [],
			"stateMutability": "nonpayable",
			"type": "function"
		}
	]
}